{
  "contractName": "CheeseTouch",
  "abi": [
    {
      "constant": true,
      "inputs": [],
      "name": "getTouchHolder",
      "outputs": [
        {
          "internalType": "address",
          "name": "",
          "type": "address"
        }
      ],
      "payable": false,
      "stateMutability": "view",
      "type": "function"
    },
    {
      "constant": false,
      "inputs": [
        {
          "internalType": "address",
          "name": "touchee",
          "type": "address"
        }
      ],
      "name": "transfer",
      "outputs": [
        {
          "internalType": "bool",
          "name": "",
          "type": "bool"
        }
      ],
      "payable": false,
      "stateMutability": "nonpayable",
      "type": "function"
    },
    {
      "constant": false,
      "inputs": [],
      "name": "startTouch",
      "outputs": [
        {
          "internalType": "bool",
          "name": "",
          "type": "bool"
        }
      ],
      "payable": false,
      "stateMutability": "nonpayable",
      "type": "function"
    }
  ],
  "bytecode": "0x608060405234801561001057600080fd5b506102b2806100206000396000f3fe608060405234801561001057600080fd5b50600436106100415760003560e01c80631a695230146100465780633599474b146100a2578063f2a7b1cc146100ec575b600080fd5b6100886004803603602081101561005c57600080fd5b81019080803573ffffffffffffffffffffffffffffffffffffffff16906020019092919050505061010e565b604051808215151515815260200191505060405180910390f35b6100aa6101b2565b604051808273ffffffffffffffffffffffffffffffffffffffff1673ffffffffffffffffffffffffffffffffffffffff16815260200191505060405180910390f35b6100f46101db565b604051808215151515815260200191505060405180910390f35b60008060009054906101000a900473ffffffffffffffffffffffffffffffffffffffff1673ffffffffffffffffffffffffffffffffffffffff163373ffffffffffffffffffffffffffffffffffffffff161461016957600080fd5b816000806101000a81548173ffffffffffffffffffffffffffffffffffffffff021916908373ffffffffffffffffffffffffffffffffffffffff16021790555060019050919050565b60008060009054906101000a900473ffffffffffffffffffffffffffffffffffffffff16905090565b60008073ffffffffffffffffffffffffffffffffffffffff166000809054906101000a900473ffffffffffffffffffffffffffffffffffffffff1673ffffffffffffffffffffffffffffffffffffffff161461023657600080fd5b336000806101000a81548173ffffffffffffffffffffffffffffffffffffffff021916908373ffffffffffffffffffffffffffffffffffffffff160217905550600190509056fea265627a7a723158208b8ffc8e77f82ddd8b2461a42bc25f6db14d3b0b5d0f4173a76a7c26c9f843b364736f6c63430005100032",
  "source": "pragma solidity ^0.5.0;\n\ncontract CheeseTouch {\n\taddress touchHolder;\n\tuint256 totalSupply_;\n\n\tfunction getTouchHolder() public view returns (address) { //public view on who is currently touched\n  \t\treturn touchHolder;\n\t}\n\n\tfunction transfer(address touchee) public returns (bool) { //transfer function that only works if the sender has the touch\n\t\trequire(msg.sender == touchHolder);\n\t\ttouchHolder = touchee;\n\t\treturn true;\n\t}\n\n    function startTouch() public returns (bool) { //start a new one under the condition that touch holder is empty\n        require(touchHolder == address(0));\n        touchHolder = msg.sender;\n        return true;\n    }\n}",
  "sourcePath": "/Users/Gabriel/Desktop/School/MAKESCHOOL/BEW2.4/makecoin/contracts/CheeseTouch.sol",
  "compiler": {
    "name": "solc",
    "version": "0.5.16+commit.9c3226ce.Emscripten.clang"
  },
  "schemaVersion": "3.2.5",
  "updatedAt": "2020-10-10T03:02:22.375Z",
  "networkType": "ethereum",
  "devdoc": {
    "methods": {}
  },
  "userdoc": {
    "methods": {}
  }
}